:1000000000800020890100000102000007020000BA
:100010000D020000130200001902000000000000A1
:10002000000000000000000000000000A5CB000060
:1000300025020000000000009DCC0000DDCC000087
:1000400037020000370200003702000037020000CC
:1000500037020000370200003702000037020000BC
:1000600037020000370200003702000037020000AC
:10007000370200003702000037020000370200009C
:10008000370200003702000037020000370200008C
:100090003702000037020000B106010037020000FD
:1000A000370200003702000037020000370200006C
:1000B000399400003702000037020000F108010007
:1000C000370200003702000037020000370200004C
:1000D000370200003702000037020000370200003C
:1000E00037020000303D0100000000201400000035
:1000F000303D01000000001000000000180000204A
:1001000008080000000000100000000080B489B062
:1001100000AFF860B9607A60BB68FB61FB68BB61E7
:1001200000237B610AE0BA69131DBB61FB69191DDD
:10013000F96112681A607B6904337B617A697B68B4
:100140009A42F0D300BF00BF2437BD4680BC704741
:1001500080B485B000AF786039607B68FB600023B5
:10016000BB6007E0FB681A1DFA6000221A60BB68DA
:100170000433BB60BA683B689A42F3D300BF00BF48
:100180001437BD4680BC704780B584B000AF194BB2
:10019000FB6013E0FB681A1DFA601B683B60FB689C
:1001A0001A1DFA601B68BB60FB681A1DFA601B68A9
:1001B0007B607A68B9683868FFF7A8FFFB680E4A69
:1001C0009342E7D30DE0FB681A1DFA601B68BB6021
:1001D000FB681A1DFA601B687B607968B868FFF7D6
:1001E000B7FFFB68054A9342EDD310F049FC10F0CD
:1001F00059FCFEE7E4000000FC0000000C010000D8
:1002000080B400AFFEE780B400AFFEE780B400AF7B
:10021000FEE780B400AFFEE780B400AFFEE780B435
:1002200000AFFEE780B400AFFEE780B400AFFEE7AA
:1002300080B400AFFEE780B400AFFEE780B582B0C7
:1002400000AF786015497A6813469B0013449B0001
:100250000B441B68002B13D010497A6813469B008F
:1002600013449B000B441B68184602F09AFF0B498D
:100270007A6813469B0013449B000B4400221A60CB
:1002800006497A6813469B0013449B000B441233C3
:1002900000221A7000BF0837BD4680BD180000203C
:1002A00080B582B000AF0023FB715EE0FA7933497C
:1002B00013469B0013449B000B4412331B78BB7105
:1002C000BB79002B4ED0FA792C4913469B0013447E
:1002D0009B000B4413331B780133D8B227491346D4
:1002E0009B0013449B000B44133302461A70FA79A7
:1002F000224913469B0013449B000B4413331B7885
:10030000EF2B15D8FA791D4913469B0013449B0027
:100310000B4412331B78012B0FD1FA79174913467E
:100320009B0013449B000B4413331B78012B04D90F
:10033000FB791846FFF782FF14E0FA790F4913465C
:100340009B0013449B000B4412331B78032B09D1F1
:10035000FA790A4913469B0013449B000B4412335D
:1003600002221A70FB790133FB71FB79092B9DD9AD
:1003700000BF00BF0837BD4680BD00BF1800002089
:1003800080B586B000AF78600B46FB700A23FB7522
:100390000A23BB750A237B7500233B750023FB747E
:1003A0000023BB740A237B7400233B7400233B753A
:1003B0008EE03A7D834913469B0013449B000B4417
:1003C00012331B78FB7397F915300A2B05D1FB7B91
:1003D000002B02D13B7D7B7577E0FB7B002B74D03B
:1003E000FB7B012B04D0FB7B012B01D809F00EF91C
:1003F0007B68002B0FD07B6819683A7D71481346E3
:100400009B0013449B00034404331B68994202D1B0
:1004100097F91430D1E0FB7B012B3BD13A7D694940
:1004200013469B0013449B000B441B68002B18D001
:100430003A7D644913469B0013449B000B441333DD
:100440001B783A7C9A4240D83B7D7B743A7D5D496B
:1004500013469B0013449B000B4413331B783B74DF
:1004600033E03A7D574913469B0013449B000B44ED
:1004700013331B78FA7C9A4227D83B7DFB753A7D73
:10048000504913469B0013449B000B4413331B78C5
:10049000FB741AE0FB7B012B17D93A7D49491346BF
:1004A0009B0013449B000B4413331B78BA7C9A4285
:1004B0000BD83B7DBB753A7D424913469B001344E4
:1004C0009B000B4413331B78BB743B7D01333B759E
:1004D0003B7D092B7FF66DAFFB7803F00203002B09
:1004E00008D197F915300A2B07D1FB7803F00103E7
:1004F000002B02D14FF0FF335FE097F91530092B45
:1005000002DC7B7D3B752CE097F91630092B0EDC65
:10051000BB7D3B753A7D2B4913469B0013449B00E2
:100520000B441B68002B13D009F070F810E097F90A
:100530001730092B02DCFB7D3B7509E097F9113080
:10054000092B02DC7B7C3B7502E04FF0FF3334E08B
:100550003B7D092B01D909F059F83B7D1846FFF77F
:100560006DFE3B7D092B01D909F050F83A7D154904
:1005700013469B0013449B000B4412331B78002B43
:1005800001D009F043F87B68002B0AD03A7D7B68E4
:1005900019680C4813469B0013449B000344043322
:1005A00019603A7D074913469B0013449B000B4496
:1005B000133300221A7097F9143018461837BD46C5
:1005C00080BD00BF1800002080B586B000AFF86085
:1005D000B9607A603B60BB685B687B61FB6893F8DD
:1005E0002630062B01D009F011F87B690622396804
:1005F000184610F05EFA7B690633062279681846C1
:1006000010F057FA7B69002242F008021A730022A8
:100610005A73FB689B69B968F8689847034618469F
:100620001837BD4680BDFFFF80B586B000AFF860CB
:10063000B9607A60FB70FB6893F82630062B01D016
:1006400008F0E4FFBB68002B12D0BB681B68002BCE
:100650000ED0BB681B68F968184601F08AFA034699
:10066000002B05D1BB681B6803F0F003E02B02D11F
:100670006FF00D0368E0FB781946B868FFF780FE5D
:100680000346FB7597F91730002B02DA97F91730FC
:100690005AE097F917202E4913469B0013449B00FC
:1006A0000B44123302221A7097F917202849134677
:1006B0009B0013449B000B440833FA681A6097F9B7
:1006C000172013469B0013449B000833204A134411
:1006D000043306227968184610F0EBF997F91720D1
:1006E0001B4913469B0013449B000B441333002209
:1006F0001A7097F91720164913469B0013449B0064
:100700000B441B68002B1ED097F917201049134685
:100710009B0013449B000B441B683B6197F9172017
:100720000B4913469B0013449B000B4400221A60A4
:10073000FB6803F127027B683969F868FFF744FF1B
:10074000386902F02EFD002318461837BD4680BDDB
:100750001800002080B58AB000AFF860B9607A60F8
:10076000FB68002B02D108F051FFB5E07B685B8984
:10077000292B03D8786802F014FDADE07B685B6834
:100780003B623B6A0E33FB61FB691B889BB2B3F58E
:10079000807F0CD1FB691B79062B08D1FB695B7943
:1007A000042B04D1FB695B889BB2082B03D07868CB
:1007B00002F0F7FC90E0FB6903F10E0107F118036A
:1007C0000422184610F075F9FB6903F1180107F1CE
:1007D00014030422184610F06CF9FB680433002B54
:1007E00003D0FB685B68002B03D1002387F8273018
:1007F00009E07A69FB685B689A420CBF0123002319
:10080000DBB287F82730FB6903F1080297F827303D
:10081000002B01D0012300E0022307F11801F86842
:10082000FFF702FFFB69DB889BB2B3F5807F03D043
:10083000B3F5007F4CD04CE097F82730002B43D025
:10084000022002F005F803461A46FB69DA80FB69CC
:1008500003F11800FB690E330422194610F029F940
:10086000FB6903F10E00FB6804330422194610F003
:1008700020F9FB6893F82630062B01D008F0C6FE5D
:10088000FB6903F11200FB6908330622194610F0D8
:1008900010F9386AFB6908330622194610F009F985
:1008A000FB6908330622B968184610F002F93B6A62
:1008B00006330622B968184610F0FBF8FB689B69FE
:1008C0007968F868984704E0FB680433002B00E07F
:1008D00000BF786802F065FC2837BD4680BDFFFF89
:1008E00080B584B000AFF860B9601346FB71FA7947
:1008F000284913469B0013449B000B4412331B787A
:10090000012B01D808F082FEFA79224913469B0098
:1009100013449B000B4412331B78022B23D1FA792A
:100920001C4913469B0013449B000B4413331B7854
:10093000E32B18D9FA7913469B0013449B00154A00
:10094000134404331946F86800F0B6FA0346002B46
:1009500009D1FA790F4913469B0013449B000B44BD
:10096000123303221A70FB6803F12701FA79134648
:100970009B0013449B000833064A134404330A4681
:10098000B968F868FFF720FE034618461037BD46E1
:1009900080BD00BF1800002080B588B000AFF860AF
:1009A000B9607A607B68BB61FB68002B01D108F0FD
:1009B0002DFEBB68002B01D108F028FE7B68002BC0
:1009C00001D108F023FE0E21B86802F074FB034643
:1009D000002B02D06FF00103AFE07B681B68F96861
:1009E000184601F0C6F80346002B02D0554BFB61B8
:1009F0009AE07B681B6803F0F003E02B16D101231B
:100A00003B7400237B745E23BB747B6801331B78CB
:100A100003F07F03DBB2FB747B689B783B757B68DC
:100A2000DB787B7507F11003FB617DE07B681A685A
:100A3000FB685B685A40FB689B681340002B15D02D
:100A40007B681B689BB24FF6A96293420ED0FB688D
:100A50000C33002B07D0FB68DB68002B03D0FB684E
:100A60000C33BB6102E06FF0030366E0364B1B788A
:100A70001946364A0B469B000B449B001344123325
:100A80001B78012B17D9BB691A682F4B1B781846A6
:100A90002E4903469B0003449B000B4404331B6810
:100AA0009A4208D1284B1B781A46B968F868FFF7B4
:100AB00017FF034641E00023FB752AE097F9172052
:100AC000224913469B0013449B000B4412331B78AE
:100AD000012B18D9BB69196897F917201B481346D1
:100AE0009B0013449B00034404331B6899420AD1C2
:100AF000FA7D154B1A70FB7D1A46B968F868FFF746
:100B0000EFFE034619E097F91730DBB20133DBB291
:100B1000FB7597F91730092BD0DDBA68B969F86809
:100B200000F016F8034608E0FB6803F12702FB69B2
:100B3000B968F868FFF748FD034618462037BD46F8
:100B400080BD00BF3C320100E00000201800002002
:100B500080B58AB000AFF860B9607A60FB6827336F
:100B6000BB61FF2387F82730BB681B68F96818460C
:100B700000F0FFFF0346002B0CD1BB681B6803F09D
:100B8000F003E02B06D0BB68002B03D0BB681B68CA
:100B9000002B02D16FF00D03F7E00121B868FFF7D9
:100BA000EFFB0346FB7597F91730002B02DA97F934
:100BB0001730EAE097F91720764913469B00134453
:100BC0009B000B4412331B78002B0AD197F9172096
:100BD000704913469B0013449B000B4412330122BF
:100BE0001A7097F917206B4913469B0013449B001A
:100BF0000B4412331B78012B0DD097F91720654950
:100C000013469B0013449B000B4412331B78012BAB
:100C100001D808F0FBFC97F917205E4913469B00AA
:100C200013449B000B4412331B78012B02D07B68CA
:100C3000002B0CD1B968F86800F03EF9034687F83C
:100C400027307B68002B02D197F927309DE07B6825
:100C5000002B01D108F0DAFC97F917204D49134613
:100C60009B0013449B000B4412331B78012B15D9B6
:100C7000FA7D494B1A7097F9172013469B001344CD
:100C80009B000833434A13440433BA697968F8680F
:100C9000FFF79AFC034687F8273074E097F917208E
:100CA0003C4913469B0013449B000B4412331B78B2
:100CB000012B68D10023FB617B683B6215E03B6A36
:100CC0005A893B6A1B899A4205D13B6A1B68002BF3
:100CD00001D008F09BFC3B6A1B7B012B02D0012357
:100CE000FB6105E03B6A1B683B623B6A002BE6D177
:100CF000FB69002B17D03B6A1B8900221946032091
:100D000001F0C2FF38623B6A002B11D07968386A63
:100D100002F038FB0346002B0AD0386A02F041FA91
:100D200000233B6204E07B683B62386A02F0C7FA4A
:100D30003B6A002B24D097F91720164913469B00D5
:100D400013449B000B441B68002B0BD097F9172012
:100D5000104913469B0013449B000B441B68184624
:100D600002F01FFA97F917200A4913469B00134413
:100D70009B000B443A6A1A60002387F8273002E090
:100D8000FF2387F8273097F9273018462837BD46C4
:100D900080BD00BF18000020E000002080B588B0B2
:100DA00000AFF860B9607A603B600023FB77FB68B6
:100DB000002B01D108F02AFC00222A21032001F097
:100DC00063FFB861BB69002B02D14FF0FF336EE0C7
:100DD000BB695B89292B01D808F018FCBB695B68EB
:100DE0007B617B690E333B61BB8E184601F030FDA1
:100DF00003461A463B69DA80FB6893F82630062BD7
:100E000001D008F003FC3B69083306223968184614
:100E10000FF04FFE3B6912330622F96A18460FF0B5
:100E200048FE7B690622796818460FF042FE7B690E
:100E300006330622B96818460FF03BFE3B690E33B5
:100E40000422B96A18460FF034FE3B6918330422B5
:100E5000396B18460FF02DFE3B6900221A700022F4
:100E600042F001025A703B69002242F008029A7077
:100E70000022DA703B6906221A713B6904225A711A
:100E80007B69002242F008021A73002242F0060237
:100E90005A73FB689B69B969F86898470346FB7702
:100EA000B86902F07EF90023BB6197F91F3018463C
:100EB0002037BD4680BDFFFF80B586B004AF7860A7
:100EC00039607B6803F127017B6803F127007B68A9
:100ED0000433012203923A680292064A0192009377
:100EE0000346054A7868FFF759FF03461846083756
:100EF000BD4680BD443201003C32010080B586B061
:100F000000AF786039600E23FB827B685B890E2B13
:100F100064D97B685B683B613B691A7B5B7B1B0226
:100F20001343FB813B691B7803F00103002B23D0A3
:100F30003B691B78012B0FD13B695B78002B1BD1E0
:100F40003B699B785E2B17D17B685B7B43F010037A
:100F5000DAB27B685A730FE03B69062226491846CD
:100F600010F0ECFB0346002B06D17B685B7B43F063
:100F70000803DAB27B685A73FB89082B03D0B3F5F8
:100F8000C16F1AD02FE03B6893F82D3003F0200397
:100F9000002B25D0FB8A5B429BB21BB219467868B6
:100FA00002F089F80346002B02D008F02FFB1AE06C
:100FB0003968786800F0C6FB0EE03B6893F82D3086
:100FC00003F02003002B0DD03B6827337A681946C5
:100FD0003868FFF7BFFB00BF002308E000BF02E056
:100FE00000BF00E000BF786802F0DBF8002318467D
:100FF0001837BD4680BD00BF3C32010080B58CB0C3
:1010000004AF786039607B685B68FB61FB691B78C3
:101010009BB203F00F039BB29B009BB2FB82FB8A47
:101020005B429BB21BB21946786802F044F8034653
:10103000002B40F0D9807B681B89032B40F2D480C1
:101040007B685B681B787B757B7D002B00F0C7801D
:10105000082B40F0C5800123BB616B4B1B6803F07C
:10106000F003E02B01D10023BB61BB69002B03D14E
:10107000786802F096F8C3E07B681B89072B40F282
:10108000B580786800F0C1FA0346002B03D0786879
:1010900002F087F8B4E02221786802F00CF80346E9
:1010A000002B42D0B7F916301946786802F003F8E1
:1010B0000346002B02D008F0A9FA9DE07B681B894B
:1010C00000221946022001F0DFFD38613B69002B48
:1010D00000F091803B695B891A46B7F916300833F6
:1010E0009A4201D208F092FA7968386902F04AF916
:1010F0000346002B02D008F089FA7DE03B695B686B
:10110000FB61FB8A5B429BB21BB21946386901F056
:10111000D2FF0346002B02D008F078FA6CE0786822
:1011200002F03FF83B697B600AE06FF021017868CC
:1011300001F0C1FF0346002B02D008F067FA5BE024
:101140007B685B68FB60304B1A68FB69DA602F4B89
:101150001A68FB691A61FB6800221A70FB685B88D9
:101160009BB24FF6F672934207D9FB685B889BB23D
:1011700009339AB2FB685A8006E0FB685B889BB231
:1011800008339AB2FB685A80FB69FF221A72FB6926
:1011900000229A720022DA721421F86900F023FA10
:1011A00003461A46FB695A81B7F916301946786822
:1011B00001F081FF0346002B02D008F027FA0FE070
:1011C0003B6802930123019300230093FF23002235
:1011D0000D49786800F0C2FB0346FB7200E000BFD7
:1011E000786801F0DEFF0BE000BF00E000BF786828
:1011F00001F0D7FF04E000BF786801F0D2FF00BF24
:101200002037BD4680BD00BFFC040020F404002050
:1012100080B582B000AF78600B46FB70FB781A4651
:101220000321786800F014F800BF0837BD4680BD80
:1012300080B582B000AF78600B46FB70FB781A4631
:101240000B21786800F004F800BF0837BD4680BD68
:1012500080B588B002AF78600B46FB701346BB7058
:1012600000222421012001F00FFD78617B69002B11
:1012700046D07B695B89232B01D808F0C7F97B68CE
:101280005B683B617B695B68FB60FB68FA781A709E
:10129000FB68BA785A70FB6800221A7100225A71F2
:1012A000FB6800229A710022DA717B695B6803F1A6
:1012B00008007B685B681C2219460FF0FAFBFB688C
:1012C00000229A700022DA707B695B891946F868FF
:1012D00000F089F903461A46FB685A803B69DB68CF
:1012E000BB6007F108020123019300230093FF2351
:1012F0000021786900F012FC786901F052FF00E0EB
:1013000000BF1837BD4680BD80B586B000AF78609D
:101310000B467B8000237B617B683B6117E03B6968
:101320001B789BB21B02FB813B6901333B613B692C
:101330001B789AB2FB891343FB813B6901333B6104
:10134000FB897A6913447B617B88023B7B807B88C5
:10135000012BE4D87B88002B08D03B691B789BB21B
:101360001B02FB81FB897A6913447B617B691A0C40
:101370007B699BB213447B617B691B0C1B04002BB4
:1013800005D07B691A0C7B699BB213447B617B6936
:101390009BB2184601F05CFA034618461837BD4662
:1013A00080BD80B588B000AFF860B9607A60FB702E
:1013B0000023FB610023FB75FB68BB6128E0BB6970
:1013C0005A68BB695B8919461046FFF79DFF0346C3
:1013D0001A46FB691344FB61FB691A0CFB699BB25B
:1013E0001344FB61BB695B8903F001039BB2002BD3
:1013F0000BD0FB7DC3F10103FB75FB691B029AB2A5
:10140000FB691B0ADBB21343FB61BB691B68BB6151
:10141000BB69002BD3D1FB7D002B07D0FB691B02DE
:101420009AB2FB691B0ADBB21343FB61BB681B6802
:101430003B613B699BB2FA691344FB613B691B0C3E
:10144000FA691344FB617B681B683B613B699BB293
:10145000FA691344FB613B691B0CFA691344FB6195
:10146000FB789BB2184601F0F3F903461A46FB6974
:101470001344FB613B8D184601F0EAF903461A4616
:10148000FB691344FB61FB691A0CFB699BB21344B3
:10149000FB61FB691A0CFB699BB21344FB61FB699E
:1014A0009BB2DB439BB218462037BD4680BD80B55A
:1014B00088B000AFF860B9607A60FB700023FB6110
:1014C0000023FB75FB68BB613BE0BB695B89BB82AA
:1014D000BA8ABB8D9A4201D9BB8DBB82BB695B685E
:1014E000BA8A11461846FFF70FFF03461A46FB69F2
:1014F0001344FB61BA8DBB8AD31ABB85BB8D47F6FB
:10150000FE72934201D908F081F8FB691A0CFB695D
:101510009BB21344FB61BB695B8903F001039BB27F
:10152000002B0BD0FB7DC3F10103FB75FB691B0294
:101530009AB2FB691B0ADBB21343FB61BB691B68F0
:10154000BB61BB69002B02D0BB8D002BBDD1FB7DE5
:10155000002B07D0FB691B029AB2FB691B0ADBB2A6
:101560001343FB61BB681B683B613B699BB2FA6933
:101570001344FB613B691B0CFA691344FB617B68F4
:101580001B683B613B699BB2FA691344FB613B6991
:101590001B0CFA691344FB61FB789BB2184601F0FF
:1015A00057F903461A46FB691344FB613B8D184605
:1015B00001F04EF903461A46FB691344FB61FB69CF
:1015C0001A0CFB699BB21344FB61FB691A0CFB69A3
:1015D0009BB21344FB61FB699BB2DB439BB2184691
:1015E0002037BD4680BD80B582B000AF78600B4625
:1015F0007B807B8819467868FFF786FE0346DB43CD
:101600009BB218460837BD4680BD80B586B000AF96
:10161000786000237B610023FB737B683B6128E0DB
:101620003B695A683B695B8919461046FFF76CFEB7
:1016300003461A467B6913447B617B691A0C7B69FC
:101640009BB213447B613B695B8903F001039BB24E
:10165000002B0BD0FB7BC3F10103FB737B691B02E7
:101660009AB27B691B0ADBB213437B613B691B683F
:101670003B613B69002BD3D1FB7B002B07D07B69FF
:101680001B029AB27B691B0ADBB213437B617B6945
:101690009BB2DB439BB218461837BD4680BD80B570
:1016A00084B000AFF860B9601346FB80FB881A462F
:1016B000B968F8680FF0FDF9FB881946F868FFF77C
:1016C00023FE034618461037BD4680BD80B485B062
:1016D00000AF7860194B1B68FB6016E0FB6893F85D
:1016E0002D3003F00103DBB2002B0BD07B681A68AE
:1016F000FB685B685A40FB689B681340002B01D174
:10170000FB6815E0FB681B68FB60FB68002BE5D1FC
:101710000B4B1B68002B07D0094B1B6893F82D302F
:1017200003F00103002B01D1002301E0044B1B68EF
:1017300018461437BD4680BC704700BF0405002022
:101740000805002080B586B000AF786039607B68FE
:101750005B687B617B691B781B09DBB2042B04D0BF
:10176000786801F01EFD0023E9E07B691B789BB2DD
:1017700003F00F037B817B899B007B817B695B8806
:101780009BB2184601F078F803463B817B685B8981
:101790007A899A4204D87B681B893A899A4204D98B
:1017A000786801F0FEFC0023C9E07B89194678695E
:1017B000FFF719FF0346002B04D0786801F0F1FC15
:1017C0000023BCE03B891946786801F001FC7B6985
:1017D0001B695D4A13607B69DB685C4A1360012307
:1017E000FB603B683B613B6993F82D3003F00103DC
:1017F000DBB2002B16D03B690433002B12D03B69BF
:101800005B68002B0ED0504B1A683B695B689A42AC
:101810001ED04D4B1B683969184600F0AAF90346E3
:10182000002B15D1FB68002B05D00023FB60484B33
:101830001B683B6102E03B691B683B613A693B689E
:101840009A4202D13B691B683B613B69002BCAD1BC
:101850003E4B1B683968184600F08BF90346002B95
:1018600005D13A4B1B6803F0F003E02B04D17868F4
:1018700001F097FC002362E03B69002B04D17868FB
:1018800001F08FFC00235AE07B69DB889BB21A468B
:101890004FF63F731340002B0BD0786800F070FDBB
:1018A00078607B68002B01D1002348E07B685B688F
:1018B0007B61284A3B681360274A7B6913607B6918
:1018C0005B7A112B06D0112B13DC012B0CD0062BCD
:1018D00005D00EE03968786806F038FD22E03968F6
:1018E000786802F0FFFF1DE039687868FFF786FB33
:1018F00018E0154B1B683968184600F03AF90346A2
:10190000002B0CD1104B1B6803F0F003E02B06D02A
:101910007B687A695A6002217868FFF779FC7868F9
:1019200001F03FFC0B4B00221A600B4B00221A60A7
:10193000064B00221A60044B00221A60002318464E
:101940001837BD4680BD00BFFC040020F404002011
:1019500004050020F80400200005002080B588B0B0
:1019600000AFF860B9607A60FB700023FB61FB6830
:10197000DB89012B01D007F049FE7B68002B00F0CA
:10198000A6801423FB821421F86801F094FB03461F
:10199000002B02D06FF00103BAE0FB685B68BB610B
:1019A000FB685B89132B01D807F030FEBB69FA781E
:1019B0001A72BB6997F82C205A7297F82C301A02C9
:1019C000FB7813431A46FB691344FB617B681A6872
:1019D000BB691A61BB691B699BB2FA691344FB615D
:1019E000BB691B691B0CFA691344FB61FB8A9B08EA
:1019F0009BB2DBB243F04003DAB2BB691A70BB6939
:101A000097F828205A7097F828301B02BA69127884
:101A100013431A46FB691344FB61FB681B89184694
:101A200000F016FF03461A46BB695A80BB695B8803
:101A30009BB21A46FB691344FB61BB6900229A7191
:101A40000022DA71344B1B88184600F001FF034670
:101A50001A46BB699A80BB699B889BB21A46FB6990
:101A60001344FB612C4B1B8801339AB22A4B1A801A
:101A7000BB68002B03D0BB681B68002B04D13B6BF9
:101A80005A68BB69DA6003E0BB681A68BB69DA6050
:101A9000BB69DB689BB2FA691344FB61BB69DB6815
:101AA0001B0CFA691344FB61FB691A0CFB699BB2BE
:101AB0001344FB61FB691B0CFA691344FB61FB696E
:101AC000DB43FB61FB699AB2BB695A8108E0FB68A2
:101AD0005B68BB61BB691B693B6107F110037B60FD
:101AE0003B6B9B8C002B0CD0FB681A893B6B9B8C4F
:101AF0009A4206D97A68396BF86800F0A3FD03466C
:101B000006E03B6B5B697A68F968386B9847034677
:101B100018462037BD4680BDE200002080B58AB05F
:101B200004AFF860B9607A60FB70FB68DB89012B59
:101B300001D007F06BFD7868FFF7C8FD78617B691D
:101B4000002B02D16FF003030FE0FA787B69029358
:101B500097F82430019397F82030009313467A6861
:101B6000B968F868FFF7FAFE034618461837BD460D
:101B700080BD80B485B000AF786039607B68FB6061
:101B80007B68B3F1FF3F02D07B68002B01D10123BA
:101B900025E03B6893F82D3003F00203002B01D1C0
:101BA00000231CE03B685B687A689A4201D10023FD
:101BB00015E0FA683B685B685A403B689B681340D5
:101BC000002B0BD13B689B68DA437B681A403B686B
:101BD0009B68DB439A4201D1012300E000231846B1
:101BE0001437BD4680BC704780B584B000AF7860C4
:101BF00007F10C031946786800F00CF80346002B37
:101C000001D0FB6801E04FF0FF3318461037BD46A6
:101C100080BDFFFF80B58AB000AF7860396007F102
:101C20000C03FB617B681B7887F8223097F8223021
:101C30002F2B03D997F82230392B01D9002301E14A
:101C400000237B620A2387F8233097F82230302B59
:101C50001CD17B6801337B607B681B7887F822305E
:101C600097F82230782B03D097F82230582B0AD1DE
:101C7000102387F823307B6801337B607B681B78F7
:101C800087F8223002E0082387F8233097F82230C3
:101C90002F2B15D997F82230392B11D897F82330EC
:101CA0007A6A02FB03F297F822301344303B7B62DE
:101CB0007B6801337B607B681B7887F8223036E0D5
:101CC00097F82330102B33D197F822302F2B03D9DC
:101CD00097F82230392B0FD997F82230602B03D98F
:101CE00097F82230662B07D997F82230402B1FD95E
:101CF00097F82230462B1BD87B6A1B0197F82220CD
:101D000002F10A0197F82220602A05D997F82220CB
:101D10007A2A01D8612200E041228A1A13437B62A9
:101D20007B6801337B607B681B7887F82230ADE7E6
:101D300097F822302E2B14D107F10C030C33FA69DB
:101D40009A4201D300237DE0FB691A1DFA617A6A89
:101D50001A607B6801337B607B681B7887F82230D0
:101D600064E700BF97F82230002B19D097F8223093
:101D7000202B15D097F822300C2B11D097F8223059
:101D80000A2B0DD097F822300D2B09D097F822306E
:101D9000092B05D097F822300B2B01D0002351E0FE
:101DA00007F10C03FA69D31A9B100133042B3BD8BB
:101DB00001A252F823F000BFCD1D00002F1E00002D
:101DC000D11D0000E91D0000071E0000002339E0BE
:101DD0007B6AB3F1807F01D3002333E0FB681B06ED
:101DE0007A6A13437B6223E07B6AB3F5803F01D3B9
:101DF000002327E0FB681A063B691B0413437A6A39
:101E000013437B6214E07B6AFF2B01D9002319E0A6
:101E1000FB681A063B691B041A437B691B021343C8
:101E20007A6A13437B6203E007F0F0FB00E000BF37
:101E30003B68002B05D0786A00F02CFD02463B6819
:101E40001A60012318462837BD4680BD80B584B08E
:101E500000AF0023BB60124B1B68FB6018E0FB68FF
:101E6000DB7F002B0BD0FB68DB7F013BDAB2FB682A
:101E7000DA77FB68BB60FB681B68FB6008E0FB6807
:101E80007B60FB681B68FB60B968786800F00AF843
:101E9000FB68002BE3D100BF00BF1037BD4680BDFB
:101EA000E400002080B588B000AF7860396000237E
:101EB000FB833A687B689A4201D107F0A7FB3B6835
:101EC000002B06D03B681B687A689A4201D007F065
:101ED0009DFB7B685B685B687B617B699B889BB2D1
:101EE000002B27D17B685B68BB617B691A687B68C4
:101EF0005A60BB6958687B680833142219460EF093
:101F0000D8FD0121B869FFF793F9B86901F0C1F96B
:101F10000346FB74FA8BFB7C1344B3F5803F01DB73
:101F200007F074FBFB7C9AB2FB8B1344FB83B8690C
:101F300001F037F97B685B68BB611CE0BB695B68DB
:101F40007B61BB69FB607B691B68BB61F86801F062
:101F5000A0F90346FB74FA8BFB7C1344B3F5803F76
:101F600001DB07F053FBFB7C9AB2FB8B1344FB8332
:101F7000F86801F016F9BB69002BDFD13968786881
:101F800000F0B2F8094B1B88FA8B9A4201D907F08E
:101F90003DFB064B1A88FB8BD31A9AB2034B1A806F
:101FA000FB8B18462037BD4680BD00BFE8000020EF
:101FB00080B588B000AF7860396000233B610023B2
:101FC000BB6100237B610023FB60264B1B68FB6128
:101FD0002CE0FB695A697B68DB689A420CD1FB698B
:101FE0009A697B681B699A4206D1FB699A897B686A
:101FF0009B889BB29A4210D0FB680133FB60BB699F
:10200000002B02D1FB69BB6107E0FB69DA7FBB698A
:10201000DB7F9A4201D8FB69BB61FB691B68002B1F
:1020200001D0FB697B61FB691B68FB61FB69002BCD
:10203000CFD1BB69002B08D07969B869FFF732FFAF
:10204000B8603A69BB6813443B613A693B689A429D
:1020500002DAFB68012BB2DC3B6918462037BD462B
:1020600080BD00BFE400002080B584B000AF786080
:1020700039601B4B1B8918460EF020FDF860FB6889
:10208000002B12D139687868FFF792FF02463B684F
:10209000934205DC124B1B8918460EF00FFDF860C9
:1020A000FB68002B01D1002316E020220021F868F4
:1020B0000EF001FDFB680322DA770A4B1A68FB6811
:1020C0001A60084AFB681360FB68083314227968B9
:1020D00018460EF0EEFCFB6818461037BD4680BD72
:1020E0004C320100E400002080B582B000AF78607F
:1020F00039600D4B1B687A689A4204D17B681B6873
:10210000094A136008E03B68002B01D107F07EFA12
:102110007B681A683B681A6078680EF033FD00BF70
:102120000837BD4680BD00BFE400002080B58AB0FE
:1021300000AF7860396000233B620123BB613B68DC
:102140005B687B617B695B889BB2184600F094FBFF
:1021500003461A467B691B789BB203F00F039BB2C0
:102160009B009BB2D31A7B827B69DB889BB21846AB
:1021700000F082FB0346C3F30C039BB2DB003B82FF
:102180003B685B687B627B6A00221A7000225A708F
:1021900000229A700022DA707B6A3A8A9A803A8A20
:1021A0007B8A13449AB27B6ADA807B685B68FB6146
:1021B0004EE0FB695B68FB607B6A9B889AB2FB68B8
:1021C0009B889BB29A421FD27B6AFA691A603B6A6B
:1021D000002B15D07B6A9B889AB23B6ADB889BB246
:1021E0009A42C0F0B2807B6ADB889AB2FB689B8817
:1021F0009BB29A4200F2A9803B6A3A681A602AE0D0
:102200007B683A685A6026E07B6A9B889AB2FB68D2
:102210009B889BB29A4200F09A807B6A9B889AB214
:10222000FB68DB889BB29A42C0F093803B6A002B2C
:1022300009D03B6ADB889AB2FB689B889BB29A42C2
:1022400001D00023BB61FB681B68FB61FB683B623C
:10225000FB69002BADD1FB69002B23D13B6A002B1E
:1022600017D03B6ADB889AB27B6A9B889BB29A4202
:1022700001D907F0CBF93B6A3A681A603B6ADB8800
:102280009AB27B6A9B889BB29A420BD00023BB61B7
:1022900008E07B685B68002B01D007F0B7F97B682A
:1022A0003A685A607B689B7F03F00103002B4AD099
:1022B000BB69002B45D07B685B685B689B889BB2E1
:1022C000002B02D00023BB613BE07B6A3B627B6A50
:1022D0001B68FB6112E0FB695B687B623B6ADB8821
:1022E0009AB27B6A9B889BB29A4202D00023BB6160
:1022F00007E07B6A3B627B6A1B68FB61FB69002B22
:10230000E9D1BB69002B1CD07B685B68002B01D135
:1023100007F07CF97B685B685B687A6A9A4201D156
:1023200007F074F97B6A1B68002B01D007F06EF987
:102330007B6ADB889AB27B689B8B9A4201D007F05C
:1023400065F9BB6916E0002314E000BF02E000BF9E
:1023500000E000BF386800F09CFF03461946074BB9
:102360001A888BB2D31A9AB2044B1A80386800F0DC
:1023700018FF002318462837BD4680BDE80000201E
:1023800080B58AB000AF78600023FB617B685B6832
:10239000BB61BB691B7803F00F039B00142B40F05B
:1023A0000381BB69DB889BB2184600F065FA0346DF
:1023B000C3F30C039BB2DB00FB82BB695B889BB25F
:1023C000184600F059FA03461A46BB691B789BB2BF
:1023D00003F00F039BB29B009BB2D31ABB827868B9
:1023E00000F057FF0346FB74754B1B881A46FB7CB5
:1023F00013440A2B10DDFB7C1946B869FFF7D8FDA2
:102400000346002B00F0D2806D4B1B881A46FB7CE4
:1024100013440A2B00F3CA806A4B1B683B6217E027
:102420003B6A5A69BB69DB689A420CD13B6A9A697C
:10243000BB691B699A4206D13B6A9A89BB699B8832
:102440009BB29A4208D03B6AFB613B6A1B683B62C5
:102450003B6A002BE4D100E000BF3B6A002B09D1AE
:10246000FB7C1946B869FFF7FFFD38623B6A002B19
:102470001CD19CE0BB69DB889BB2184600F0FCF9DC
:102480000346C3F30C03002B10D13B6ADB891846CB
:1024900000F0F2F90346C3F30C03002B06D03B6AAD
:1024A00008331422B96918460EF003FBFB7C9AB27C
:1024B000434B1B8813449AB2414B1A80BB69DB889B
:1024C0009BB203F02003002B0CD13B6A9B7F43F0AF
:1024D0000103DAB23B6A9A77FA8ABB8A13449AB24A
:1024E0003B6A9A837968386AFFF720FE0346002B1F
:1024F00058D03B6A9B8B14339AB23B6A9A833B6AEF
:102500005B685B681B687B623B6A5B685B68BB619E
:102510003B6A083314221946B8690EF0CAFA3B6ABE
:102520009B8B184600F094F903461A46BB695A8003
:10253000BB6900229A710022DA71BB6900229A728B
:102540000022DA721421B869FFF74DF803461A46E3
:10255000BB695A813B6A5B687B600EE07B6A5B68A3
:10256000FB606FF01301786A00F0A5FD796A786866
:1025700000F0BCFEFB681B687B627B6A002BEDD120
:10258000F969386AFFF7B0FD786800F082FE03460B
:1025900019460B4B1A888BB2D31A9AB2084B1A8081
:1025A0007B6808E0002306E000BF00E000BF786819
:1025B00000F0F7FD002318462837BD4680BD00BF58
:1025C000E8000020E400002080B500AF034B5B89E9
:1025D00018460EF073FA0346184680BD4C320100CF
:1025E00080B582B000AF78607B68002B01D107F026
:1025F0000DF878680EF0C6FA00BF0837BD4680BDFA
:1026000080B584B000AF78607B68FB60FB68002B0E
:1026100001D106F0FBFFFA687B689A4201D006F010
:10262000F5FFFB685B69002B04D0FB685B6918460B
:1026300000F0B7FDF868FFF7D3FF00BF1037BD46C5
:1026400080BDFFFF80B592B002AFF860B9607A60DC
:10265000BB689B8C7B8614237B870023FB86FB68EF
:102660005B68FB62FB6ABB62BB6ADB889BB2184695
:1026700000F002F903463B873B8FC3F30C03BB8793
:102680003B8F03F40053FB84FB681B89143BFB87DF
:102690007B8E143B002B00DA0733DB10BB84CBE0CE
:1026A0007B8EA3F11302FB8F9A42CCBF0123002340
:1026B000DBB27B84BB8FC3F30C039AB2FB8C134356
:1026C0003B877B8C002B03D13B8F43F400533B872C
:1026D0007B8C002B03D1BB8CDB009BB200E0FB8F1B
:1026E0003B8400221421022000F0CEFAF861FB693D
:1026F000002B02D14FF0FF33A3E0FB685B89132B63
:1027000001D806F083FFFB695B681422F96A18465A
:102710000EF0CFF9FB695B68BB62FB685A687B8F80
:102720001A44FB685A60FB685A897B8FD31A9AB2A5
:10273000FB685A813B8CBB8649E0FB685B89BA8E9B
:10274000934228BF1346FB86FB8E002B03D1FB6808
:102750001B68FB603BE0FFF737FFB861BB69002BEC
:1027600005D1F86900F01DFD4FF0FF3369E0B8694D
:10277000FB685B68F98EFA8E019200930346022291
:10278000032000F0CBFB78617B69002B08D1B8698E
:10279000FFF726FFF86900F004FD4FF0FF3350E02B
:1027A000F86800F08CFDBB69FA685A61BB69274A7A
:1027B0001A617969F86900F099FDBA8EFB8ED31A17
:1027C000BB86BB8E002B02D0FB681B68FB60BB8EF8
:1027D000002BB2D1FB8E7B873B8F184600F038F878
:1027E00003461A46BB6ADA803B8C14339BB2184608
:1027F00000F02EF803461A46BB6A5A80BB6A0022D4
:102800009A720022DA721421B86AFEF7ECFE0346CF
:102810001A46BB6A5A81BB685B697A68F969B8680D
:102820009847F86900F0BDFCFA8F3B8CD31AFB8700
:10283000BA8FBB8C1344BB87FB8F002B7FF430AF68
:10284000002318464037BD4680BD00BF012600006A
:1028500080B483B000AF0346FB80FB881B021AB232
:10286000FB881B0A9BB21BB213431BB29BB21846D8
:102870000C37BD4680BC704780B582B000AF0346C0
:10288000FB80FB881846FFF7E3FF0346184608372E
:10289000BD4680BD80B483B000AF78607B681A0607
:1028A0007B681B0203F47F031A437B681B0A03F453
:1028B0007F431A437B681B0E134318460C37BD46F3
:1028C00080BC704780B582B000AF78607868FFF751
:1028D000E1FF034618460837BD4680BD80B500AF0E
:1028E00007F02DF800F00AF808F042FD05F0F0FCC2
:1028F00000F04EFE05F0C2FB00BF80BD80B400AF0B
:1029000000BFBD4680BC704780B584B000AFF860A2
:10291000B9607A603B60FB69002B01D106F076FE5E
:10292000FB6800225A60FB6800229A60FB68002264
:10293000DA60FB68002283F82D20FB68BA69DA614F
:10294000124B1B785A1CD1B2104A1170FA6882F8E7
:102950003030FB683A6A1A613B687A68B968F8688F
:1029600000F018F8FB69F86898470346002B01D07F
:10297000002307E0064B1A68FB681A60044AFB68EC
:102980001360FB6818461037BD4680BDEA00002082
:102990000405002080B584B000AFF860B9607A60AB
:1029A0003B60B968F86800F00DF87968F86800F0E5
:1029B00074F83968F86800F05DF800BF1037BD465C
:1029C00080BDFFFF80B586B000AF786039603B689E
:1029D000002B3ED03B681A687B685B689A4238D00F
:1029E000224B1B687B6111E07B691A687B685B681E
:1029F0009A4208D17B69DB68FB60786900F0DEFFF2
:102A0000FB687B6102E07B69DB687B617B69002B93
:102A1000EAD1174B1B683B6118E03B69002B12D0D1
:102A20003B691B68002B0ED03B691A687B685B68AA
:102A30009A4208D13B68002B02D03B681B6800E03B
:102A400000233A6913603B69DB683B613B69002BFB
:102A5000E3D13B68002B02D03B681B6800E00023F9
:102A60007A68536000BF1837BD4680BD140500204A
:102A70001C05002080B483B000AF786039603B68EB
:102A8000002B02D03B681B6800E000237A68D3600B
:102A900000BF0C37BD4680BC704780B483B000AF28
:102AA000786039603B68002B02D03B681B6800E00F
:102AB00000237A68936000BF0C37BD4680BC704726
:102AC00080B483B000AF7860034A7B68136000BFB6
:102AD0000C37BD4680BC70470805002080B582B029
:102AE00000AF78607B6893F82D3003F00103002B72
:102AF0001CD17B6893F82D3043F00103DAB27B6878
:102B000083F82D207B6893F82D3003F01003002B01
:102B10000CD07B6893F82D3003F02003002B05D0F8
:102B20007B68043319467868FEF7C6F900BF08379A
:102B3000BD4680BD80B483B000AF78607B6893F8F9
:102B40002D3003F01003002B19D17B6893F82D3042
:102B500043F01003DAB27B6883F82D207B6893F88A
:102B60002D3003F00103002B09D07B6893F82D3042
:102B700003F02003002B02D0034B01221A6000BF98
:102B80000C37BD4680BC70474806002080B483B037
:102B900000AF78607B6893F82D3003F01003002BB2
:102BA0000BD07B6893F82D3023F01003DAB27B68EA
:102BB00083F82D20034B00221A6000BF0C37BD465E
:102BC00080BC70474806002080B582B000AF06F098
:102BD000E2FE38600F4B00221A70386806F0E2FE01
:102BE0000D4B1B687B600FE07B685B6F002B08D090
:102BF0007B685B6F184601F0B2FB7B6800225A6766
:102C000005E07B68DB687B607B68002BECD10837D4
:102C1000BD4680BD0C0500201405002080B582B0A3
:102C200000AF7860FFF7D0FF00BF0837BD4680BD1A
:102C300080B582B000AF06F0AEFE7860104B1B7816
:102C4000FB700F4B01221A70786806F0ABFEFB7820
:102C5000002B10D1002200210A4809F0E5FD0346AF
:102C6000002B08D006F097FE7860054B00221A7002
:102C7000786806F097FE00BF0837BD4680BD00BFEC
:102C80000C0500201D2C000080B588B000AF034665
:102C9000FB710B46BB801346BB71FB79032B17D826
:102CA00001A252F823F000BFB92C0000BF2C000095
:102CB000C52C0000CB2C00003623FB820CE0222325
:102CC000FB8209E00E23FB8206E00023FB8203E087
:102CD00006F09CFC00231BE1BB79032B0DD0032BDA
:102CE00000F30A81002B00F0B980002BC0F20481B0
:102CF000013B012B00F20081E2E0874B1B8B184661
:102D00000DF0DCFEF861FB69002B03D1FFF790FFAB
:102D10000023FDE0FB69BA791A73FB6900221A608F
:102D2000FB8A1033FA691344033323F003031A4672
:102D3000FB695A60FB695B6803F00303002B01D059
:102D400006F064FCFB69BA881A81FB8A033323F01E
:102D50000303C3F5BD630433BA889342A8BF134687
:102D60009AB2FB695A81FB695B68FA6952891A4415
:102D7000FB6903F2FC539A4201D906F047FCFB8A37
:102D8000033323F00303C3F5BD630433002B01DCDD
:102D900006F03CFCFB690122DA81FB69BB61BB8860
:102DA000FA6952899B1A3B6154E05B4B1B8B1846B6
:102DB0000DF084FEF860FB68002B06D1FFF738FFAA
:102DC000F86900F0EEF90023A2E0FB68BA791A7303
:102DD000FB6800225A73FB6800221A60BB69FA681C
:102DE0001A603B694FF6FE72934201DD06F00EFC5D
:102DF0003B699AB2FB681A813B699BB240F2EC5284
:102E0000934228BF13469AB2FB685A81FB6803F1CC
:102E10001002FB685A60FB685B6803F00303002B39
:102E200001D006F0F3FBFB695B68FA6952891A442A
:102E3000FB6903F2FC539A4201D906F0E7FBFB68F9
:102E40000122DA81FB685B891A463B699B1A3B6168
:102E5000FB68BB613B69002BA7DC52E0FB8A1333A4
:102E600023F00302BB88033323F003031344184603
:102E70000DF024FEF861FB69002B01D1002347E02F
:102E8000FB8A1033FA691344033323F003031A4611
:102E9000FB695A60FB69BA881A81FB691A89FB6968
:102EA0005A81FB6900221A60FB69BA791A73FB69BF
:102EB0005B6803F00303002B22D006F0A7FB1FE0A2
:102EC000154BDB8A18460DF0F9FDF861FB69002B04
:102ED00001D100231CE0FB6900225A60FB69BA881B
:102EE0001A81FB691A89FB695A81FB6900221A6001
:102EF000FB69BA791A7304E006F088FB002307E047
:102F000000BFFB690122DA81FB6900225A73FB6969
:102F100018462037BD4680BD4C32010080B584B0D4
:102F200000AF3B600346FB710B46BB801346BB7191
:102F3000FB79032B16D801A252F823F04D2F000085
:102F4000532F0000592F00005F2F00003623FB8114
:102F50000CE02223FB8109E00E23FB8106E0002325
:102F6000FB8103E006F052FB00232DE0FB890333D5
:102F700023F00302BB881A44BB8B9A4201DD002375
:102F800022E03B6800221A60BB69002B08D0FB8955
:102F9000033323F00303BA691A443B685A6002E022
:102FA0003B6800225A603B6802225A733B68BA8829
:102FB0001A813B681A893B685A813B68BA791A734F
:102FC0003B680122DA813B6818461037BD4680BD58
:102FD00080B586B000AF78600B467B807B68002BA5
:102FE00001D106F013FB7B681B7B032B0DD07B68A4
:102FF0001B7B012B09D07B681B7B002B05D07B68DA
:103000001B7B022B01D006F001FB7B681B897A88B1
:103010009A424CD27B887A6812899B1AFB607B8823
:103020007B827B687B611BE07B695B897A8AD31A30
:103030007B82FB684FF6FE72934201DD06F0E6FAF2
:103040007B691A89FB689BB213449AB27B691A8127
:103050007B691B687B617B69002B01D106F0D6FA86
:103060007B695B897A8A9A42DED87B691B7B002B5D
:1030700009D17B695B897A8A9A4204D07B69002BEB
:1030800001D106F0C3FA7B697A8A5A817B695A8931
:103090007B691A817B691B68002B04D07B691B68E4
:1030A000184600F07EF87B6900221A6000E000BF3D
:1030B0001837BD4680BD80B584B000AF78600B4640
:1030C0007B807B68002B01D106F0A0FAB7F90230B3
:1030D000002B02D07B68002B01D100235DE0B7F903
:1030E0000230002B0BDA7B885B42FB817B685B89BB
:1030F000FA899A4205D906F089FA01234DE07B88C6
:10310000FB817B681B7BBB817B685B68BB60BB8989
:10311000002B02D0BB89032B12D17B685A68B7F908
:1031200002305B421A447B685A607B685A687B684D
:1031300010339A4222D27B68BA685A6001232CE08D
:10314000BB89022B02D0BB89012B13D1B7F9023006
:10315000002B0DDA7B685B89FA899A4208D87B6874
:103160005A68B7F902305B421A447B685A6005E03E
:10317000012312E006F04AFA01230EE07B685A8927
:103180007B8813449AB27B685A817B681A897B8852
:1031900013449AB27B681A81002318461037BD4643
:1031A00080BD80B588B000AF78607B68002B06D109
:1031B0007B68002B01D106F029FA002365E07B68CB
:1031C0001B7B002B0DD07B681B7B012B09D07B6800
:1031D0001B7B022B05D07B681B7B032B01D006F0E9
:1031E00015FA0023FB774CE006F0D5FBB8617B684D
:1031F000DB89002B01D106F009FA7B68DB89013BF2
:103200009AB27B68DA817B68DB89FB82B86906F059
:10321000C9FBFB8A002B32D17B681B683B617B6852
:103220001B7BFB817B685B7B03F00203002B0CD0D4
:103230007B68BB60BB681B69002B01D106F0E6F917
:10324000BB681B697868984713E0FB89032B03D19F
:1032500078680DF097FC0CE0FB89012B02D0FB890C
:10326000022B03D178680DF08DFC02E078680DF038
:1032700089FCFB7F0133FB773B697B6001E0002326
:103280007B607B68002BAFD1FB7F18462037BD46A3
:1032900080BD80B485B000AF78600023FB7305E08B
:1032A000FB7B0133FB737B681B687B607B68002BB7
:1032B000F6D1FB7B18461437BD4680BC704780B5FD
:1032C00084B000AF78607B68002B0BD006F063FB06
:1032D000F8607B68DB8901339AB27B68DA81F86831
:1032E00006F060FB00BF1037BD4680BD80B584B0DE
:1032F00000AF786039607B68002B02D03B68002B00
:1033000002D106F083F92AE07B68FB600AE0FB68E3
:103310001A893B681B8913449AB2FB681A81FB68BF
:103320001B68FB60FB681B68002BF0D1FB681A89E7
:10333000FB685B899A4201D006F068F9FB681B685C
:10334000002B01D006F062F9FB681A893B681B89E3
:1033500013449AB2FB681A81FB683A681A60103706
:10336000BD4680BD80B582B000AF786039603968F5
:103370007868FFF7BBFF3868FFF7A1FF00BF083789
:10338000BD4680BD80B584B000AF78603960002351
:10339000FB810023BB817B68002B08D03B68002B9E
:1033A00005D07B681A893B681B899A4204D206F0D3
:1033B0002DF96FF00D037FE07B685B891A46FB896E
:1033C000D21A3B685B891946BB89CB1A9A4205DB46
:1033D0003B685A89BB89D31A7B8104E07B685A8990
:1033E000FB89D31A7B817B685A68FB89D0183B68BC
:1033F0005A68BB8913447A8919460DF05AFBFA8939
:103400007B891344FB81BA897B891344BB817B6828
:103410005B89FA899A4201D906F0F8F83B685B8922
:10342000BA899A4201D906F0F1F83B685B89BA89FA
:103430009A4204D30023BB813B681B683B607B68D6
:103440005B89FA899A420FD10023FB817B681B6854
:103450007B607B68002B07D13B68002B04D006F013
:10346000D5F86FF00D0327E03B68002B0ED03B68CA
:103470005A893B681B899A4208D13B681B68002B1C
:1034800004D006F0C3F86FF0050315E07B68002B4D
:103490000ED07B685A897B681B899A4208D17B6869
:1034A0001B68002B04D006F0B1F86FF0050303E0B1
:1034B0003B68002B80D1002318461037BD4680BDE5
:1034C00080B588B000AFF860B96011461A460B4667
:1034D000FB801346BB800023FB82FB68002B03D1DB
:1034E00006F094F800234FE0BB68002B03D106F0F0
:1034F0008DF8002348E000237B83FB68002B02D07B
:10350000BB68002B01D100233EE0FB68FB6134E087
:10351000BB88002B0AD0FB695B89BA889A4205D325
:10352000FB695B89BA88D31ABB8023E0FB695A899F
:10353000BB88D31A3B833A8BFB889A4201D9FB881C
:103540003B837B8BBA68D018FB695A68BB881344ED
:103550003A8B19460DF0ADFAFA8A3B8B1344FB8285
:103560007A8B3B8B13447B83FA883B8BD31AFB808B
:103570000023BB80FB691B68FB61FB88002B02D02A
:10358000FB69002BC4D1FB8A18462037BD4680BD9D
:1035900080B400AF00BFBD4680BC704780B500AFAF
:1035A00000F024FE074B1B780133DAB2054B1A708A
:1035B000044B1B7803F00103002B01D000F0B2FB99
:1035C00000BF80BDEB000020B0B586B002AF7860D0
:1035D0000B46FB70FB78002B6ED07B681B7E042BA8
:1035E00003D07B681B7E072B66D17B689B6F002B0B
:1035F00005D17B689B8D41F2D06293425CD07B68A1
:103600009B7F03F01003002B01D105F0FFFF7B68C7
:10361000186D7B68996A7C687B681D1D7B685B8B75
:103620007A68928B019200932B46224604F0C2FAEC
:10363000786801F07AF8744B1B687A689A4205D171
:10364000714B1B68DB68704A136019E06E4B1B6896
:103650006E4A136010E06D4B1B68DB687A689A4213
:1036600005D16A4B1B687A68D268DA6008E0674B5C
:103670001B68DB68654A1360644B1B68002BEAD14A
:103680007B680022DA60624B01221A707B681B7E25
:10369000042B0CD17B680A221A765E4B1A687B6871
:1036A000DA605C4A7B68136004F0A4FC02E078688E
:1036B0000DF068FA0023A3E07B681B7E072B00F265
:1036C000898001A252F823F0E9360000513700004A
:1036D0006937000087370000A1370000D5370000A8
:1036E000D5370000BB3700000023FB737B685B8B82
:1036F000002B27D0484B1B687A689A4205D1464B6D
:103700001B68DB68444A136019E0434B1B683F4A5F
:10371000136010E03D4B1B68DB687A689A4205D164
:103720003A4B1B687A68D268DA6008E0374B1B684E
:10373000DB68364A1360354B1B68002BEAD17B6887
:103740000022DA6078680DF01DFA00237B604BE000
:103750000023FB737968314801F028F878680DF090
:1037600011FA00237B603FE00023FB737968264851
:1037700001F01CF8264B01221A7078680DF002FA4D
:1037800000237B6030E0786803F0BCF90346FB73EC
:1037900097F90F30002B22D17B6805221A761EE0A4
:1037A000786803F0AFF90346FB7397F90F30002BED
:1037B00017D17B6805221A7613E0786803F0A2F926
:1037C0000346FB7397F90F30002B0CD17B6809225D
:1037D0001A7608E00023FB7300237B6004E000BF3F
:1037E00002E000BF00E000BF7B68002B06D097F925
:1037F0000F30002B02D1786803F070FF97F90F307B
:1038000018461037BD46B0BD140500202005002025
:103810001005002028050020240500201C0500209C
:1038200080B582B000AF78607B681B7E012B06D02C
:103830007B689B7F43F01003DAB27B689A770121A3
:103840007868FFF7C1FE034618460837BD4680BDBD
:1038500080B584B000AFF860B9607A60FB681B7E09
:10386000012B02D16FF00C0336E0BB68002B1BD09C
:10387000FB689B7F43F01003DAB2FB689A777B68A2
:10388000002B05D00121F868FFF79EFE034623E0D8
:10389000FB689B6F002B07D0FB689B6F1846FFF7F8
:1038A00080FCFB6800229A677B68002B13D0FB68C2
:1038B0001B7E042B02DC032B02DA09E0072B07D165
:1038C000BB68DBB21946F868FFF77EFE034603E0EB
:1038D0006FF00C0300E0002318461037BD4680BD92
:1038E00080B588B002AF786039607B681B7E012BA1
:1038F00001D105F08BFE7B681B7E0A2B07D179680E
:103900002B4800F053FF78680DF03CF94BE07B68E2
:103910001B6D7B617B689B6A3B617B68D3F88C3055
:10392000FB607B681B69BB607968224800F03EFF42
:10393000214B01221A707B681B6F002B04D07B681F
:103940001B6F184600F00BFD7B68DB6E002B04D06C
:103950007B68DB6E184600F002FD7B685B6F002B16
:1039600004D07B685B6F184600F0F9FC3B68002BC5
:103970000ED079687B68181D7B685B8B7A68928BA8
:103980000192009303460A463969786904F012F9F6
:1039900078680DF0F7F8FB68002B04D0FB686FF037
:1039A0000901B868984700BF1837BD4680BD00BF01
:1039B00028050020140500201005002080B582B0E5
:1039C00000AF786001217868FFF78AFF00BF0837F1
:1039D000BD4680BD80B584B000AF78607B689B6ACF
:1039E0007A68928D1344FB607B681B6B7A68D28E79
:1039F00040F668318A4228BF0A4692B21344FA68F8
:103A0000D31A002B08DB7B689A8D7B68DA857B688C
:103A10001B6BFA68D31A1BE07B689A6A7B681B6B86
:103A2000D31A002B03DD7B680022DA850FE07B6868
:103A30001A6B7B689B6AD31ABB60BB68B3F5803F87
:103A400001D305F0E3FDBB689AB27B68DA850023F9
:103A500018461037BD4680BD80B584B000AF786091
:103A60000B467B807B681B7E012B01D105F0CEFDD0
:103A70007A887B689B8DC3F57F43FF339A4201DDD3
:103A800005F0C4FD7B689A8D7B8813449AB27B68ED
:103A90009A857B689B8D41F2D062934203D97B6803
:103AA00041F2D0629A857868FFF794FF0346FB6085
:103AB000FB6840F2B352934209DD7B689B7F43F081
:103AC0000203DAB27B689A77786803F007FE00BFDA
:103AD0001037BD4680BDFFFF80B483B000AF002328
:103AE000BB801D4B1B885A1C91B21B4A11804FF69C
:103AF000FF72934203D1184B4FF440421A800023C7
:103B0000FB711EE0FB79154A52F823301B683B60BD
:103B100011E03B685A8B104B1B889A4208D1BB8836
:103B20000133BB80BB88B3F5804FDAD300230DE0AF
:103B30003B68DB683B603B68002BEAD1FB790133D3
:103B4000FB71FB79032BDDD9034B1B8818460C371F
:103B5000BD4680BC704700BF0000002080320100DD
:103B600080B588B000AFF860B9603B601346FB8059
:103B7000FB681B7E002B04D005F048FD6FF00803A6
:103B8000C3E0BB68002B0AD0FB68BA6812685A60B1
:103B9000FB68FA889A83FB68002B07D002E06FF07D
:103BA0000503B2E0FB681B68002B0FD1FB680433F0
:103BB0001846FDF78BFDF861FB69002B02D16FF011
:103BC0000303A2E0FB695A68FB681A60FB685B8B21
:103BD0007B83FB685B8B002B0CD1FFF77DFF0346DB
:103BE0001A46FB685A83FB685B8B002B02D16FF08F
:103BF00001038AE000F042FE7861FB6800229A62CD
:103C0000FB687A691A657B695A1EFB689A647B694E
:103C10005A1EFB68DA65FB6841F2D0629A85FB6840
:103C200041F2D062DA85FB689A6AFB681A63FB6826
:103C300041F2D062A3F86020FB684FF40672DA8686
:103C4000FB68DB8EB968184600F02CFE03461A4666
:103C5000FB68DA86FB680122A3F84C20FB68DB8E48
:103C60001A46920013445B009AB2FB68A3F84E20F8
:103C7000FB683A68C3F884200221F86803F0FCFB73
:103C80000346FB7497F91330002B3CD1FB680222EA
:103C90001A767B8B002B27D01E4B1B68FA689A4242
:103CA00005D11C4B1B68DB681A4A136019E0194BDD
:103CB0001B68194A136010E0174B1B68DB68FA6831
:103CC0009A4205D1144B1B68FA68D268DA6008E0A2
:103CD000114B1B68DB68104A13600F4B1B68002BED
:103CE000EAD1FB680022DA600C4B1A68FB68DA60E4
:103CF0000A4AFB68136004F07DF9094B01221A702F
:103D0000F86803F0EBFC97F9133018462037BD46EE
:103D100080BD00BF240500202005002014050020E0
:103D200010050020B0B58AB002AF00237B75894B27
:103D30001B680133874A1360874B1B780133DAB263
:103D4000854B1A700023BB61844B1B68FB61EEE15D
:103D5000FB691B7E002B01D105F058FCFB691B7E23
:103D6000012B01D105F052FCFB691B7E0A2B01D10E
:103D700005F04CFCFB6993F82120774B1B789A42A5
:103D800003D1FB69DB68FB61D1E1734B1A78FB69F6
:103D900083F821200023FB750023BB75FB691B7E84
:103DA000022B08D1FB6993F84630062B03D1FB7D2B
:103DB0000133FB7593E0FB6993F846300C2B03D17C
:103DC000FB7D0133FB758AE0FB6993F89530002B8E
:103DD00027D0FB6993F894300133DAB2FB6983F89A
:103DE0009420FB6993F89420FB6993F89530013B8C
:103DF0005B49CB5C9A4272D3FB69002283F8942022
:103E0000FB6993F89530062B07D8FB6993F895303A
:103E10000133DAB2FB6983F89520F86904F041F8C0
:103E20005DE0FB69B3F93430002B08DBFB69B3F9C3
:103E300034309BB201339BB21AB2FB699A86FB699C
:103E40001B6F002B4BD0FB69B3F93420FB69B3F92E
:103E500044309A4243DBFB691B7E022B14D0FB6982
:103E6000B3F94030DB101BB21A46FB69B3F942309C
:103E70001344FA6992F8462011463A4A525C93403C
:103E80001AB2FB69A3F84420FB6900229A86FB69F9
:103E9000B3F86020FB69B3F84C30934228BF134657
:103EA000FB81FB895B089AB2FB69A3F84E20FB6992
:103EB000B3F84E301A46FB69DB8E5B009A4206DA95
:103EC000FB69DB8E5B009AB2FB69A3F84E20FB69AD
:103ED000DA8EFB69A3F84C20F86903F0DAFEFB697F
:103EE0001B7E062B0FD1FB699B7F03F01003002B79
:103EF00009D0184B1A68FB695B6AD31A282B02D9C0
:103F0000FB7D0133FB75FB691B7A03F00803002B73
:103F10004DD0FB691B7E042B03D0FB691B7E072B56
:103F200045D10C4B1A68FB695B6AD21AFB69D3F85E
:103F3000903003F5242303F6B8430B49A1FB031388
:103F40005B099A4212D9FB7D0133FB75BB7D0133BE
:103F5000BB752CE018050020EC00002014050020A3
:103F60007832010068320100D34D6210994B1A6813
:103F7000FB695B6AD21AFB69D3F89010FB6993F86E
:103F800096301846944B03FB00F30B449349A1FB76
:103F900003135B099A420AD9F86903F049FFFB69E8
:103FA00093F896300133DAB2FB6983F89620FB6907
:103FB0005B6F002B16D0874B1A68FB695B6AD21ABD
:103FC000FB69B3F9443019460B465B000B445B00B8
:103FD0009A4207D3FB695B6F184600F0C0F9FB6992
:103FE00000225A67FB691B7E032B09D1794B1A68A3
:103FF000FB695B6AD31A282B02D9FB7D0133FB7561
:10400000FB691B7E092B09D1724B1A68FB695B6A3D
:10401000D31AF02B02D9FB7D0133FB75FB7D002BFE
:104020004FD0F86900F081FBBB69002B0BD06C4BC3
:104030001B68FA699A4201D105F0E8FAFB69DA686F
:10404000BB69DA600AE0664B1B68FA699A4201D0E4
:1040500005F0DCFAFB69DB68614A1360BB7D002B6D
:1040600010D0FB69186DFB69996AFC69FB691D1D1D
:10407000FB695B8BFA69928B019200932B46224677
:1040800003F098FDFB69D3F88C30BB60FB691B69BA
:104090007B60FB693B60FB69DB68FB6138680CF0A7
:1040A00071FD504B00221A70BB68002B04D0BB6816
:1040B0006FF00901786898474A4B1B78002B36D07F
:1040C00040E6FB69BB61FB69DB68FB61BB69DB7FC9
:1040D0000133DAB2BB69DA77BB69DA7FBB6993F87F
:1040E00020309A4223D3BB690022DA773D4B00226D
:1040F0001A70BB69D3F88830002B0AD0BB69D3F89B
:104100008830BA691269B9691046984703467B75C9
:1041100001E000237B75334B1B78002B00D011E6A8
:1041200097F91530002B02D1B86903F0D7FAFB6973
:10413000002B7FF40DAE0023BB612B4B1B68FB6192
:104140003FE0FB691B7E0A2B01D005F05FFA0023DC
:10415000FB75204B1A68FB695B6AD31AF02B02D9F6
:10416000FB7D0133FB75FB7D002B25D0F86900F04A
:10417000DCFABB69002B0BD01B4B1B68FA699A4217
:1041800001D105F043FAFB69DA68BB69DA600AE03D
:10419000154B1B68FA699A4201D005F037FAFB69A2
:1041A000DB68114A1360FB693B61FB69DB68FB61FB
:1041B00038690CF0E7FC04E0FB69BB61FB69DB6874
:1041C000FB61FB69002BBCD100BF00BF2037BD469F
:1041D000B0BD00BF18050020F8240100D34D6210C7
:1041E00014050020100500202805002080B582B0AD
:1041F00000AF244B1B780133DAB2224B1A70224BEA
:104200001B687B6036E07B6893F821201D4B1B7890
:104210009A422FD01B4B1A787B6883F821207B6849
:104220009B7F03F00103002B10D07B689B7F43F042
:104230000203DAB27B689A77786803F04FFA7B68FA
:104240009B7F23F00303DAB27B689A777B68DB6895
:104250003B607B689B6F002B0AD00C4B00221A70CE
:10426000786800F015F8094B1B78002B00D0C6E7E2
:104270003B687B607B68002BC5D100BF00BF08375F
:10428000BD4680BDEC000020140500201005002074
:1042900090B585B000AF78607B689B6F5B7BBB732C
:1042A0007B689B6FBB607B6800229A677B68D3F852
:1042B0008030002B0BD07B68D3F880407B68186976
:1042C0000023BA687968A0470346FB7307E0002320
:1042D000BA687968002000F08FF80346FB7397F9FD
:1042E0000F30002B2BD1BB7B03F02003002B31D0F0
:1042F0007B689B8D41F2D062934205D07B689B8D99
:1043000001339AB27B689A857B68D3F88030002BA2
:104310000BD07B68D3F880407B68186900230022AB
:104320007968A0470346FB7301E00023FB7397F90C
:104330000F3013F10A0F0DD16FF009030BE097F95D
:104340000F3013F10A0F02D16FF0090303E07B680D
:10435000BA689A67002318461437BD4690BD80B5E9
:1043600084B000AF786007E07B681B68FB6078680A
:1043700000F00AF8FB687B607B68002BF4D100BF7B
:1043800000BF1037BD4680BD80B582B000AF7860F9
:104390007B68002B0BD07B685B68002B04D07B68AC
:1043A0005B681846FEF7FDFE78680CF0EBFB00BF7B
:1043B0000837BD4680BDFFFF80B584B000AF786090
:1043C0000C4BDB8818460CF079FBF860FB68002B7F
:1043D00001D100230AE014227968F8680CF069FB27
:1043E000FB685B681846FEF76AFFFB6818461037E3
:1043F000BD4680BD4C32010080B584B000AFF8608E
:10440000B9607A60FB707B68002B09D07B681B89E0
:104410001946B868FFF720FB7868FEF7C2FE08E08F
:1044200097F90330002B04D1B868FFF7F9F9034678
:1044300000E0002318461037BD4680BD80B586B029
:1044400000AF0346FB717F23FB720023FB60002358
:104450003B61184B1B687B611FE07B695B7EFA79CF
:104460009A4217D37B695B7EFA7A9A4212D3124B37
:104470001A687B695B6AD31AFA689A420AD80E4BAB
:104480001A687B695B6AD31AFB607B693B617B6955
:104490005B7EFB727B69DB687B617B69002BDCD117
:1044A0003B69002B02D03869FFF788FA00BF183744
:1044B000BD4680BD140500201805002080B584B0DD
:1044C00000AF00237B600023BB60124B1B68FB60C6
:1044D00012E0114B1A68FB685B6AD31A7A689A4239
:1044E00007D80D4B1A68FB685B6AD31A7B60FB68C0
:1044F000BB60FB68DB68FB60FB68002BE9D1BB6835
:10450000002B02D0B868FFF759FA00BF1037BD463C
:1045100080BD00BF280500201805002080B584B0AC
:1045200000AF0346FB71424B5B8818460CF0C6FA9D
:10453000F860FB68002B14D1FFF7C0FF3C4B5B8891
:1045400018460CF0BBFAF860FB68002B09D1FB7928
:104550001846FFF773FF364B5B8818460CF0AEFA2F
:10456000F860FB68002B5DD098220021F8680CF001
:10457000A2FAFB68FA795A76FB6840F66832A3F82B
:104580006620FB680022A3F86820FB6841F2D06235
:104590009A85FB6841F2D062DA85FB6800225A7284
:1045A000FB68FF229A72FB684FF40672DA86FB689A
:1045B0000622A3F84420FB680022A3F84020FB68F1
:1045C0000622A3F84220FB684FF6FF729A86FB682A
:1045D0000122A3F84C2000F051F9B860FB68BA68DA
:1045E0009A65FB68BA681A65FB68BA689A64FB68E2
:1045F000BA68DA650F4B1A68FB685A620E4B1A7874
:10460000FB6883F82120FB680022DA77FB680B4AFD
:10461000C3F88020FB680A4AC3F89020FB68002298
:1046200083F89620FB6818461037BD4680BD00BF52
:104630004C32010018050020EC000020F943000076
:1046400000DD6D0080B500AF4020FFF767FF034637
:10465000184680BD80B483B000AF786039607B6855
:104660003A681A6100BF0C37BD4680BC704780B500
:1046700082B000AF786039607B681B7E012B01D16E
:1046800004F0C4FF7B683A68C3F8802000BF083795
:10469000BD4680BD80B582B000AF786039607B6870
:1046A0001B7E012B01D104F0B1FF7B683A68DA6709
:1046B00000BF0837BD4680BD80B582B000AF7860CE
:1046C00039607B681B7E012B01D104F09FFF7B6862
:1046D0003A68C3F88C2000BF0837BD4680BD80B45F
:1046E00083B000AF786039607B683A685A6100BF78
:1046F0000C37BD4680BC704780B584B000AFF86011
:10470000B9601346FB71FB681B7E012B01D104F0DD
:104710007DFFFB68BA68C3F88820FB68FA7983F8E4
:10472000202000BF1037BD4680BD80B582B000AFED
:1047300078607B681B7E002B34D07B681B7E0A2B45
:1047400030D07B681B7E012B2CD07B689B6F002BAD
:1047500007D07B689B6F1846FEF723FD7B6800221D
:104760009A677B685B6F1846FFF7F9FD7B6800224C
:104770005A677B684FF6FF729A867B68DB6E184635
:10478000FFF7EDFD7B681B6F1846FFF7E8FD7B68C0
:104790000022DA667B68DA6E7B681A677B68002223
:1047A000A3F86A2000BF0837BD4680BD80B582B03F
:1047B00000AF786039607B681B683A689A4205D11F
:1047C0007B681B68DA687B681A6019E07B681B6885
:1047D000294A136010E0284B1B68DB683A689A424C
:1047E00005D1254B1B683A68D268DA6008E0224B95
:1047F0001B68DB68204A13601F4B1B68002BEAD143
:104800003B680022DA603868FFF78FFF3B681B7E49
:104810000A2B13D03B681B7E012B0FD03B689B7F7C
:1048200003F00103002B09D03B689B7F43F0020398
:10483000DAB23B689A77386802F050FF3B681B7E1B
:10484000012B11D03B68DB6E002B01D004F0DEFEA3
:104850003B681B6F002B01D004F0D8FE3B685B6FF8
:10486000002B01D004F0D2FE3B6800221A7600BF74
:104870000837BD4680BD00BF2005002080B400AFD2
:10488000064B1A68064B1B681344044A1360034B1B
:104890001B681846BD4680BC704700BF040000205E
:1048A0001805002080B584B000AF03463960FB8056
:1048B0003868FCF70BFFF860FB68002B0DD0FB6835
:1048C0009B8C002B09D0FB689B8C283B7B817A89D1
:1048D000FB88934228BF1346FB80FB88184610379D
:1048E000BD4680BD90B589B002AF786039607B6805
:1048F0005B68A24A13607B685B68A04A1268127802
:1049000002F00F02920013449D4A13609B4B1B68F8
:104910001B789BB203F00F039BB29B009BB25B42E0
:104920009BB21BB219467868FEF7C5FB0346002B05
:1049300040F0F5827B681B89132B40F2F082914B8B
:104940001B6839681846FDF714F90346002B40F040
:10495000E8828C4B1B6803F0F003E02B00F0E1824F
:104960007B681B8900930623864A87497868FCF791
:1049700018FD0346002B40F0D682814B1B689B89B3
:104980009BB21846FDF778FF03461B0B9BB2BB7228
:10499000BB7A9BB21A469203D31A9B009BB21BB2FE
:1049A00019467868FEF787FB0346002B40F0BD826E
:1049B000734B1B681B889BB2714A14681846FDF73D
:1049C0005BFF034623806E4B1B685B889BB26C4A7F
:1049D00014681846FDF750FF03466380684B1B6858
:1049E0005B68674A14681846FDF76CFF034663600E
:1049F0006368664A1360624B1B689B68604A146870
:104A00001846FDF75FFF0346A360A368604A136082
:104A10005B4B1B68DB899BB2594A14681846FDF74B
:104A20002BFF0346E381564B1B689B899BB21846BC
:104A3000FDF722FF0346DBB203F03F03DAB2554B2A
:104A40001A707B681A89534B1B7803F00303002B01
:104A500014BF01230023DBB29BB213449AB24E4B26
:104A60001A8000233B614D4B1B687B614FE07B69E3
:104A70001B7E002B01D104F0C9FD7B691B7E0A2B34
:104A800001D104F0C3FD7B691B7E012B01D104F031
:104A9000BDFD7B699A8B3A4B1B681B889BB29A427F
:104AA00030D17B695A8B364B1B685B889BB29A422C
:104AB00028D17B695A68344B1B689A4222D17B69A2
:104AC0001A68304B1B689A421CD17B69DB687A6993
:104AD0009A4201D104F09AFD3B69002B0AD07B6910
:104AE000DA683B69DA602D4B1A687B69DA602B4A19
:104AF0007B6913607B69DB687A699A420BD104F0A9
:104B000085FD08E07B693B617B69DB687B617B69D4
:104B1000002BACD100E000BF7B69002B40F083800C
:104B20001F4B1B687B6140E07B691B7E0A2B01D019
:104B300004F06CFD7B699A8B114B1B681B889BB240
:104B40009A422FD17B695A8B0D4B1B685B889BB2B5
:104B50009A4227D17B695A680B4B1B689A4221D134
:104B60007B691A68074B1B689A421BD1786900F071
:104B7000C1FA7868FEF715FBDDE100BF08010020EF
:104B800004010020FC040020F40400200C0100209B
:104B9000100100201401002016010020140500203F
:104BA000280500207B69DB687B617B69002BBBD11A
:104BB00000233B61994B1B68FB6019E0FB685A8B33
:104BC000974B1B685B889BB29A420CD1FB681A68B2
:104BD000944B1B689A420ED0FB68002B0BD0FB68ED
:104BE0001B68002B07D0FB683B61FB68DB68FB6040
:104BF000FB68002BE2D1FB68002B14D03B69002B33
:104C00000AD0FB68DA683B69DA60844B1A68FB6893
:104C1000DA60824AFB681360F86800F0A1F97868EE
:104C2000FEF7BFFA87E17B69002B00F052817E4BD3
:104C300000221A607B681A897B4B1A817A4A7B684A
:104C40005360774B1B68784A1361784B00221A60D7
:104C5000774B00221A70774B1B7803F00803002B68
:104C600006D07B685B7B43F00103DAB27B685A7342
:104C70007B699B6F002B10D07869FFF709FB034617
:104C800013F10A0F00F009817B699B6F002B04D0A0
:104C9000694B1B88002B40F00081684A7B691360D8
:104CA000786900F091FA0346FB7297F90B3013F123
:104CB0000A0F00F0F4805E4B1B7803F00803002B12
:104CC00015D07B69D3F88C30002B08D07B69D3F8E2
:104CD0008C307A6912696FF00A0110469847796939
:104CE0005748FFF763FD78690BF04CFFDEE0504B4F
:104CF0001B7803F01003002B1BD07B699B7F03F014
:104D00001003002B0DD17B69D3F88C30002B08D019
:104D10007B69D3F88C307A6912696FF00B01104609
:104D2000984779694648FFF741FD78690BF02AFFFB
:104D3000BCE00023FB727B69B3F86430002B17D012
:104D40007B69DB6F002B0BD07B69DB6F7A691069A5
:104D50007A69B2F86420796998470346FB7201E0EA
:104D60000023FB7297F90B3013F10A0F00F09980C2
:104D70002E4B1B68002B3CD07B699B6F002B01D016
:104D800004F044FC7B699B7F03F01003002B08D0E8
:104D9000264B1B681846FEF704FA7869FEF70EFEEC
:104DA00084E07B69D3F88030002B0CD07B69D3F88A
:104DB00080407B6918691D4B1A6800237969A047F8
:104DC0000346FB7208E0194B1A680023796900203A
:104DD000FFF712FB0346FB7297F90B3013F10A0F32
:104DE00061D097F90B30002B03D0104B1A687B6908
:104DF0009A670F4B1B7803F02003002B46D07B698A
:104E00009B6F002B1ED07B699B6F5A7B7B699B6FCE
:104E100042F02002D2B25A7338E000BF1C050020D5
:104E200004010020FC040020F00000201C010020F0
:104E30001801002014010020160100202C0500207C
:104E4000140500207B699B8D41F2D062934205D00E
:104E50007B699B8D01339AB27B699A857B69D3F814
:104E60008030002B0BD07B69D3F880407B691869B8
:104E7000002300227969A0470346FB7201E000236A
:104E8000FB7297F90B3013F10A0F0ED02B4B002257
:104E90001A60786902F022FC08E000BF06E000BF5B
:104EA00004E000BF02E000BF00E000BF234B00228F
:104EB0001A60234B00221A60224B5B68002B39D00A
:104EC000204B5B681846FEF76CF91E4B00225A60B7
:104ED00030E01D4B1B689B899BB21846FDF7CCFC4C
:104EE000034603F00403002B15D1184B1868184B28
:104EF0001B881A46174B1B68D118134B1B685B881D
:104F00009BB2114A1268128892B201920093124B1E
:104F1000124A02F04FFE7868FEF743F90AE000BF3C
:104F200004E000BF02E000BF00E000BF7868FEF7C9
:104F300038F900E000BF1C37BD4690BD2C050020AD
:104F40001C010020F00000200401002010010020BE
:104F5000160100200C010020F4040020FC040020B5
:104F600080B586B002AF7860594B1B7803F004031C
:104F7000002B01D00023A7E0554B1B7803F0100352
:104F8000002B16D0534B1868534B1B881A46534BB3
:104F90001B68D118524B1B685B889BB2504A126841
:104FA000128892B2019200934E4B4F4A02F002FED9
:104FB00089E0474B1B7803F00203002B00F083804D
:104FC0007B685B7E1846FFF7A9FAF860FB68002B48
:104FD00002D14FF0FF3377E0434B1A68FB681A6049
:104FE0007B685A8BFB685A833E4B1A68FB685A6091
:104FF0003B4B1B681B889AB2FB689A83FB680322B1
:105000001A76364B1B685A1CFB689A62FB689A6AD0
:10501000FB681A63324B1B68DB899AB2FB68A3F802
:1050200060202F4B1B68DB899AB2FB68A3F86220D3
:10503000FB68B3F86020FB68A3F84E20274B1B6881
:105040005A1EFB685A657B681A69FB681A617B689F
:105050005A69FB685A617B681B7A23F07303DAB2E2
:10506000FB681A72214B1A68FB68DA601F4AFB68FA
:10507000136002F0BFFF1E4B01221A70F86801F0A6
:105080004DFCFB68DA8EFB68043319461046FFF7C7
:1050900009FC03461A46FB68DA861221F86802F01A
:1050A000EBF90346FB7297F90B30002B06D0002179
:1050B000F868FEF715FC97F90B3005E0F86802F088
:1050C0000DFB034600E0002318461037BD4680BDA7
:1050D0001401002010010020160100200C01002006
:1050E00004010020F4040020FC040020140500202A
:1050F0001005002080B584B002AF78602A4B1B7881
:1051000003F00403002B01D0002349E0264B1B7859
:1051100003F00203002B28D0244B1A687B689B6A9B
:10512000D31A002B2BDB214B1A687B689B6A7968AA
:10513000898D0B44D31A002B21DC1D4B18681D4BA5
:105140001B881A46194B1B68D1181B4B1B685B88C0
:105150009BB2194A1268128892B201920093174BBF
:10516000174A02F027FD00231AE00F4B1B7803F0CB
:105170000103002B03D0134B1A687B685A620D4B56
:105180001B88002B0BD07B689B7F43F00203DAB2B5
:105190007B689A77786802F0A1FA034600E0002362
:1051A00018460837BD4680BD140100200C010020C0
:1051B000100100201601002004010020F40400204A
:1051C000FC0400201805002080B586B002AF78608E
:1051D0000023FB730023BB739D4B1B7803F0040378
:1051E000002B3BD07B681B7E022B08D17B681A6D9D
:1051F000984B1B689A4215D10123FB7312E0964B22
:105200001A687B689B6AD31A002B0BDB924B1A68D7
:105210007B689B6A7968898D0B44D31A002B01DC6B
:105220000123FB73FB7B002B16D07B681B7E002BBE
:1052300001D104F0EBF9894B1B7843F00803DAB293
:10524000864B1A707B689B7F23F00103DAB27B6880
:105250009A776FF00A031EE300231CE37C4B1B7854
:1052600003F00203002B10D07B681B7E022B0CD0B6
:105270007B681B7E032B08D07B689B7F43F0020377
:10528000DAB27B689A77002305E37B689B7F03F0A3
:105290001003002B03D1724B1A687B685A627B683B
:1052A000002283F89620786801F038FB7B681B7E2B
:1052B000023B072B00F2DF8201A252F823F000BF6D
:1052C000E1520000A5540000DB5500000556000027
:1052D0001D570000DB550000B5570000495800007D
:1052E0005B4B1B7803F01003002B00F0BD80584B84
:1052F0001B7803F00203002B00F0B6807B681B6F65
:105300001B695B681846FDF7DDFA03465A1C514BD2
:105310001B689A4240F0A8807B68B3F8663001337E
:105320009AB27B68A3F866204B4B1B685A1C7B68BB
:105330009A627B689A6A7B681A63464B1A687B6834
:105340009A64484B1B68DB899AB27B68A3F860209B
:10535000444B1B68DB899AB27B68A3F862203E4B02
:105360001B685A1E7B685A657B6804221A767B6824
:10537000DA8E7B68043319461046FFF793FA03462A
:105380001A467B68DA867B68DB8E1A4692001344E5
:105390005B009AB27B68A3F84E207B68B3F84C3070
:1053A000012B04D17B68DB8E5B009BB201E07B6844
:1053B000DB8E7A68A2F84C307B68B3F86830002B3B
:1053C00001D104F023F97B68B3F86830013B9AB24D
:1053D0007B68A3F868207B681B6FBB60BB681A689A
:1053E0007B681A67B868FEF7CFFF7B681B6F002BDE
:1053F00004D17B684FF6FF729A8606E07B68002234
:105400009A867B68002283F846207B68D3F8843034
:10541000002B0AD07B68D3F884307A6810690022A8
:10542000796898470346BB7301E00023BB7397F983
:105430000E3013F10A0F02D16FF009032BE27B68E3
:105440009B7F43F00203DAB27B689A7715E200BFD4
:1054500014010020100100200C0100201801002080
:105460001805002004010020974B1B7803F010035F
:10547000002B00F00282954B1868954B1B881A464A
:10548000944B1B68D118944B1B685B889BB2924A63
:105490001268128892B201920093904B904A02F0E7
:1054A00089FBEAE1884B1B7803F01003002B7FD0C7
:1054B000864B1A687B689B6CD31A013B002B60DB20
:1054C000824B1A687B681B6DD31A002B59DC7B68F2
:1054D00004221A767B685B69002B01D104F096F8F0
:1054E0007B685B69002B09D07B685B697A6810690F
:1054F0000022796898470346BB7301E0F223BB732F
:1055000097F90E30002B0AD097F90E3013F10A0FDD
:1055100002D07868FEF752FA6FF00903BBE17B68AE
:10552000B3F84C30BB81786800F03EFA7B68B3F882
:105530006430002B07D07B68B3F86430013B9AB22B
:105540007B68A3F86420BB89012B04D17B68DB8EC8
:105550005B009BB201E07B68DB8E7A68A2F84C307E
:10556000604B1B7803F02003002B34D07B689B7FBB
:1055700043F00203DAB27B689A777B6807221A76D7
:1055800029E0524B1868524B1B881A46514B1B6836
:10559000D118514B1B685B889BB24F4A1268128826
:1055A00092B2019200934D4B4D4A02F003FB66E12B
:1055B000454B1B7803F00203002B00F060817B68F1
:1055C0009B6A5A1E434B1B689A4240F05881786888
:1055D00002F090FB53E100BF51E1786800F0E4F97C
:1055E000404B1B7803F02003002B00F04A817B68BE
:1055F0009B7F43F00203DAB27B689A777B680722CD
:105600001A763EE1786800F0CFF9364B1B7803F04C
:105610002003002B70D02C4B1B7803F01003002BC1
:1056200047D07B681A6D294B1B689A4241D17B6831
:105630009B7F43F00203DAB27B689A777868FFF7C2
:1056400074F8294B1B687A689A4205D1264B1B686F
:10565000DB68254A136019E0234B1B68234A13605B
:1056600010E0224B1B68DB687A689A4205D11F4B19
:105670001B687A68D268DA6008E01C4B1B68DB683C
:105680001A4A1360194B1B68002BEAD17B68002271
:10569000DA60174B01221A707B680A221A76154BC2
:1056A0001A687B68DA60134A7B68136002F0A2FC18
:1056B000E9E07B689B7F43F00203DAB27B689A776C
:1056C0007B6808221A76DEE0140100201001002019
:1056D000160100200C01002004010020F404002029
:1056E000FC040020180100201405002020050020E3
:1056F0001005002028050020694B1B7803F01003DB
:10570000002B00F0C0807B681A6D664B1B689A42C4
:1057100040F0B9807B6806221A76B4E0786800F021
:1057200043F9614B1B7803F02003002B00F0AD80A0
:105730007B689B7F43F00203DAB27B689A777868D4
:10574000FEF7F3FF594B1B687A689A4205D1574B15
:105750001B68DB68554A136019E0544B1B68544AB8
:10576000136010E0524B1B68DB687A689A4205D1DF
:105770004F4B1B687A68D268DA6008E04C4B1B68B4
:10578000DB684B4A13604A4B1B68002BEAD17B68ED
:105790000022DA60474B01221A707B680A221A76CF
:1057A000454B1A687B68DA60434A7B68136002F0F5
:1057B00021FC6AE0786800F0F7F8394B1B7803F0B9
:1057C0001003002B63D07B681A6D364B1B689A421E
:1057D0005DD17868FEF7A9FF344B1B687A689A425E
:1057E00005D1324B1B68DB68304A136019E02F4B40
:1057F0001B682F4A136010E02D4B1B68DB687A682A
:105800009A4205D12A4B1B687A68D268DA6008E0B0
:10581000274B1B68DB68264A1360254B1B68002B4F
:10582000EAD17B680022DA60224B01221A707B6881
:105830000A221A76204B1A687B68DA601E4A7B6857
:10584000136002F0D7FB22E0786800F0ADF8144B4B
:105850001B7803F01003002B1BD07B681A6D114BD3
:105860001B689A4215D1104B1B7843F01003DAB233
:105870000D4B1A700DE000BF0CE000BF0AE000BF46
:1058800008E000BF06E000BF04E000BF02E000BF88
:1058900000E000BF002318461037BD4680BD00BFA2
:1058A0001401002010010020180100201405002020
:1058B00020050020100500202805002090B585B0A7
:1058C00000AF786039607B681B699B899BB2184682
:1058D000FCF7D2FF034603F00103002B27D0386802
:1058E000FEF73DFD00233B6055E03B681B699B894B
:1058F0009BB21846FCF7C0FF034603F00103002BE0
:105900000DD07B681B699B899CB20120FCF7A0FF2E
:1059100003461A467B681B69224392B29A813B6810
:10592000FB603B681B683B60F868FEF72DFD3B6839
:10593000002B0ED07B681B891A461A4B1B681A4431
:105940003B681B695B68396809890B44D31A002BD3
:10595000CBDA3B68002B1ED07B681B891A46114BA3
:105960001B681A443B681B695B68D31A002B12DD65
:105970003B681B695B689AB20A4B1B689BB2D31ADF
:105980009AB27B681A817B685A687B681B891946C2
:105990001046FDF71DFB7B683A681A6000BF14379C
:1059A000BD4690BD0C010020F0B58DB000AF786011
:1059B0000023BB617B681B7E032B01D803F026FE0E
:1059C000A34B1B7803F01003002B00F0D6827B68FA
:1059D000B3F860301A467B689B6D13447B617B682B
:1059E0005A6D9C4B1B68D31A002B1BDB7B685A6DCE
:1059F000984B1B689A4206D17B689A6D964B1B6840
:105A0000D31A002B0EDB7B689A6D934B1B689A426E
:105A100043D1924B1B68DB899AB27B68B3F8603044
:105A20009A423AD98D4B1B68DB899AB27B68A3F8FE
:105A300060207B68B3F86220884B1B68DB899BB2CF
:105A40009A4206D2854B1B68DB899AB27B68A3F821
:105A50006220804B1A687B685A657F4B1A687B68A6
:105A60009A657B68B3F86030002B0DD17B6893F8A2
:105A70009530002B11D17B68002283F894207B683D
:105A8000012283F8952008E07B6893F89530002B7D
:105A900003D07B68002283F895206F4B1A687B68DF
:105AA0009B6CD31A002B57DC7B680022A3F8642080
:105AB0006B4B1B88002B46D17B689B6D7A68B2F8D4
:105AC000602013447A699A423DD17B68B3F934303F
:105AD000002B38DB7B689A6C5F4B1B689A4232D193
